:0300000002004CAF
:200008000000E2FBEAF2802C0000E0FBEAF08024E6B50202EBF62200E2B50202EBF22200DE
:20002800E0B50202EBF02230F6E0A88220F5D3EAC6F582228B822230F6E6A88220F5D980EE
:01004800CFE8
:0300A5000200490D
:030049000200D4DE
:2000A800AC82AD83AEF0FFEC4D4E4F601E758CFA758ACAC28DD28C308DFDC28C1CBCFF0990
:2000C8001DBDFF051EBEFF011F80DC22538EF75389F043890153B3FB43B404B2929003E895
:0800E800E4F5F01200A880F31A
:06007B00E478FFF6D8FD59
:200059007900E94400601B7A009000F4780175A000E493F2A308B8000205A0D9F4DAF27559
:02007900A0FFE6
:200081007800E84400600A790175A000E4F309D8FC7800E84400600C7900900001E4F0A37D
:0400A100D8FCD9FAB4
:0D004C007581071200F0E582600302004993
:0400F00075820022F3
:00000001FF
